{
  "abi": [
    {
      "inputs": [],
      "stateMutability": "nonpayable",
      "type": "constructor"
    },
    {
      "inputs": [
        {
          "internalType": "address",
          "name": "player",
          "type": "address"
        },
        {
          "internalType": "uint256",
          "name": "score",
          "type": "uint256"
        }
      ],
      "name": "addToScore",
      "outputs": [],
      "stateMutability": "nonpayable",
      "type": "function"
    },
    {
      "inputs": [],
      "name": "admin",
      "outputs": [
        {
          "internalType": "address",
          "name": "",
          "type": "address"
        }
      ],
      "stateMutability": "view",
      "type": "function"
    },
    {
      "inputs": [
        {
          "internalType": "address",
          "name": "",
          "type": "address"
        }
      ],
      "name": "highScores",
      "outputs": [
        {
          "internalType": "uint256",
          "name": "",
          "type": "uint256"
        }
      ],
      "stateMutability": "view",
      "type": "function"
    },
    {
      "inputs": [
        {
          "internalType": "address",
          "name": "",
          "type": "address"
        }
      ],
      "name": "totalScores",
      "outputs": [
        {
          "internalType": "uint256",
          "name": "",
          "type": "uint256"
        }
      ],
      "stateMutability": "view",
      "type": "function"
    },
    {
      "inputs": [
        {
          "internalType": "address",
          "name": "player",
          "type": "address"
        },
        {
          "internalType": "uint256",
          "name": "score",
          "type": "uint256"
        }
      ],
      "name": "updateHighScore",
      "outputs": [],
      "stateMutability": "nonpayable",
      "type": "function"
    }
  ],
  "devdoc": {
    "kind": "dev",
    "methods": {},
    "version": 1
  },
  "evm": {
    "assembly": "    /* \"BrickGame.sol\":60:675  contract GameScores {... */\n  mstore(0x40, 0x80)\n    /* \"BrickGame.sol\":329:380  constructor() {... */\n  callvalue\n  dup1\n  iszero\n  tag_1\n  jumpi\n  0x00\n  dup1\n  revert\ntag_1:\n  pop\n    /* \"BrickGame.sol\":354:359  admin */\n  0x00\n    /* \"BrickGame.sol\":354:372  admin = msg.sender */\n  dup1\n  sload\n  not(sub(shl(0xa0, 0x01), 0x01))\n  and\n    /* \"BrickGame.sol\":362:372  msg.sender */\n  caller\n    /* \"BrickGame.sol\":354:372  admin = msg.sender */\n  or\n  swap1\n  sstore\n    /* \"BrickGame.sol\":60:675  contract GameScores {... */\n  dataSize(sub_0)\n  dup1\n  dataOffset(sub_0)\n  0x00\n  codecopy\n  0x00\n  return\nstop\n\nsub_0: assembly {\n        /* \"BrickGame.sol\":60:675  contract GameScores {... */\n      mstore(0x40, 0x80)\n      callvalue\n      dup1\n      iszero\n      tag_1\n      jumpi\n      0x00\n      dup1\n      revert\n    tag_1:\n      pop\n      jumpi(tag_2, lt(calldatasize, 0x04))\n      shr(0xe0, calldataload(0x00))\n      dup1\n      0x85582eb4\n      gt\n      tag_8\n      jumpi\n      dup1\n      0x85582eb4\n      eq\n      tag_5\n      jumpi\n      dup1\n      0xe22a8e9f\n      eq\n      tag_6\n      jumpi\n      dup1\n      0xf851a440\n      eq\n      tag_7\n      jumpi\n      0x00\n      dup1\n      revert\n    tag_8:\n      dup1\n      0xd8e104\n      eq\n      tag_3\n      jumpi\n      dup1\n      0x5ae895ff\n      eq\n      tag_4\n      jumpi\n    tag_2:\n      0x00\n      dup1\n      revert\n        /* \"BrickGame.sol\":169:214  mapping(address => uint256) public highScores */\n    tag_3:\n      tag_9\n      tag_10\n      calldatasize\n      0x04\n      tag_11\n      jump\t// in\n    tag_10:\n      mstore(0x20, 0x02)\n      0x00\n      swap1\n      dup2\n      mstore\n      0x40\n      swap1\n      keccak256\n      sload\n      dup2\n      jump\n    tag_9:\n      mload(0x40)\n        /* \"#utility.yul\":552:577   */\n      swap1\n      dup2\n      mstore\n        /* \"#utility.yul\":540:542   */\n      0x20\n        /* \"#utility.yul\":525:543   */\n      add\n        /* \"BrickGame.sol\":169:214  mapping(address => uint256) public highScores */\n    tag_13:\n      mload(0x40)\n      dup1\n      swap2\n      sub\n      swap1\n      return\n        /* \"BrickGame.sol\":388:496  function addToScore(address player, uint256 score) external  {... */\n    tag_4:\n      tag_15\n      tag_16\n      calldatasize\n      0x04\n      tag_17\n      jump\t// in\n    tag_16:\n      tag_18\n      jump\t// in\n    tag_15:\n      stop\n        /* \"BrickGame.sol\":116:162  mapping(address => uint256) public totalScores */\n    tag_5:\n      tag_9\n      tag_20\n      calldatasize\n      0x04\n      tag_11\n      jump\t// in\n    tag_20:\n      mstore(0x20, 0x01)\n      0x00\n      swap1\n      dup2\n      mstore\n      0x40\n      swap1\n      keccak256\n      sload\n      dup2\n      jump\n        /* \"BrickGame.sol\":504:672  function updateHighScore(address player, uint256 score) external {... */\n    tag_6:\n      tag_15\n      tag_24\n      calldatasize\n      0x04\n      tag_17\n      jump\t// in\n    tag_24:\n      tag_25\n      jump\t// in\n        /* \"BrickGame.sol\":87:107  address public admin */\n    tag_7:\n      sload(0x00)\n      tag_26\n      swap1\n      sub(shl(0xa0, 0x01), 0x01)\n      and\n      dup2\n      jump\n    tag_26:\n      mload(0x40)\n      sub(shl(0xa0, 0x01), 0x01)\n        /* \"#utility.yul\":1011:1066   */\n      swap1\n      swap2\n      and\n        /* \"#utility.yul\":993:1067   */\n      dup2\n      mstore\n        /* \"#utility.yul\":981:983   */\n      0x20\n        /* \"#utility.yul\":966:984   */\n      add\n        /* \"BrickGame.sol\":87:107  address public admin */\n      tag_13\n        /* \"#utility.yul\":847:1073   */\n      jump\n        /* \"BrickGame.sol\":388:496  function addToScore(address player, uint256 score) external  {... */\n    tag_18:\n      sub(shl(0xa0, 0x01), 0x01)\n        /* \"BrickGame.sol\":460:479  totalScores[player] */\n      dup3\n      and\n      0x00\n      swap1\n      dup2\n      mstore\n        /* \"BrickGame.sol\":460:471  totalScores */\n      0x01\n        /* \"BrickGame.sol\":460:479  totalScores[player] */\n      0x20\n      mstore\n      0x40\n      dup2\n      keccak256\n        /* \"BrickGame.sol\":460:488  totalScores[player] += score */\n      dup1\n      sload\n        /* \"BrickGame.sol\":483:488  score */\n      dup4\n      swap3\n        /* \"BrickGame.sol\":460:479  totalScores[player] */\n      swap1\n        /* \"BrickGame.sol\":460:488  totalScores[player] += score */\n      tag_31\n      swap1\n        /* \"BrickGame.sol\":483:488  score */\n      dup5\n      swap1\n        /* \"BrickGame.sol\":460:488  totalScores[player] += score */\n      tag_32\n      jump\t// in\n    tag_31:\n      swap1\n      swap2\n      sstore\n      pop\n      pop\n      pop\n      pop\n        /* \"BrickGame.sol\":388:496  function addToScore(address player, uint256 score) external  {... */\n      jump\t// out\n        /* \"BrickGame.sol\":504:672  function updateHighScore(address player, uint256 score) external {... */\n    tag_25:\n      sub(shl(0xa0, 0x01), 0x01)\n        /* \"BrickGame.sol\":592:610  highScores[player] */\n      dup3\n      and\n      0x00\n      swap1\n      dup2\n      mstore\n        /* \"BrickGame.sol\":592:602  highScores */\n      0x02\n        /* \"BrickGame.sol\":592:610  highScores[player] */\n      0x20\n      mstore\n      0x40\n      swap1\n      keccak256\n      sload\n        /* \"BrickGame.sol\":584:610  score > highScores[player] */\n      dup2\n      gt\n        /* \"BrickGame.sol\":580:665  if (score > highScores[player]) {... */\n      iszero\n      tag_34\n      jumpi\n      sub(shl(0xa0, 0x01), 0x01)\n        /* \"BrickGame.sol\":627:645  highScores[player] */\n      dup3\n      and\n      0x00\n      swap1\n      dup2\n      mstore\n        /* \"BrickGame.sol\":627:637  highScores */\n      0x02\n        /* \"BrickGame.sol\":627:645  highScores[player] */\n      0x20\n      mstore\n      0x40\n      swap1\n      keccak256\n        /* \"BrickGame.sol\":627:653  highScores[player] = score */\n      dup2\n      swap1\n      sstore\n        /* \"BrickGame.sol\":580:665  if (score > highScores[player]) {... */\n    tag_34:\n        /* \"BrickGame.sol\":504:672  function updateHighScore(address player, uint256 score) external {... */\n      pop\n      pop\n      jump\t// out\n        /* \"#utility.yul\":14:210   */\n    tag_35:\n        /* \"#utility.yul\":82:102   */\n      dup1\n      calldataload\n      sub(shl(0xa0, 0x01), 0x01)\n        /* \"#utility.yul\":131:185   */\n      dup2\n      and\n        /* \"#utility.yul\":121:186   */\n      dup2\n      eq\n        /* \"#utility.yul\":111:204   */\n      tag_38\n      jumpi\n        /* \"#utility.yul\":200:201   */\n      0x00\n        /* \"#utility.yul\":197:198   */\n      dup1\n        /* \"#utility.yul\":190:202   */\n      revert\n        /* \"#utility.yul\":111:204   */\n    tag_38:\n        /* \"#utility.yul\":14:210   */\n      swap2\n      swap1\n      pop\n      jump\t// out\n        /* \"#utility.yul\":215:401   */\n    tag_11:\n        /* \"#utility.yul\":274:280   */\n      0x00\n        /* \"#utility.yul\":327:329   */\n      0x20\n        /* \"#utility.yul\":315:324   */\n      dup3\n        /* \"#utility.yul\":306:313   */\n      dup5\n        /* \"#utility.yul\":302:325   */\n      sub\n        /* \"#utility.yul\":298:330   */\n      slt\n        /* \"#utility.yul\":295:347   */\n      iszero\n      tag_40\n      jumpi\n        /* \"#utility.yul\":343:344   */\n      0x00\n        /* \"#utility.yul\":340:341   */\n      dup1\n        /* \"#utility.yul\":333:345   */\n      revert\n        /* \"#utility.yul\":295:347   */\n    tag_40:\n        /* \"#utility.yul\":366:395   */\n      tag_41\n        /* \"#utility.yul\":385:394   */\n      dup3\n        /* \"#utility.yul\":366:395   */\n      tag_35\n      jump\t// in\n    tag_41:\n        /* \"#utility.yul\":356:395   */\n      swap4\n        /* \"#utility.yul\":215:401   */\n      swap3\n      pop\n      pop\n      pop\n      jump\t// out\n        /* \"#utility.yul\":588:842   */\n    tag_17:\n        /* \"#utility.yul\":656:662   */\n      0x00\n        /* \"#utility.yul\":664:670   */\n      dup1\n        /* \"#utility.yul\":717:719   */\n      0x40\n        /* \"#utility.yul\":705:714   */\n      dup4\n        /* \"#utility.yul\":696:703   */\n      dup6\n        /* \"#utility.yul\":692:715   */\n      sub\n        /* \"#utility.yul\":688:720   */\n      slt\n        /* \"#utility.yul\":685:737   */\n      iszero\n      tag_44\n      jumpi\n        /* \"#utility.yul\":733:734   */\n      0x00\n        /* \"#utility.yul\":730:731   */\n      dup1\n        /* \"#utility.yul\":723:735   */\n      revert\n        /* \"#utility.yul\":685:737   */\n    tag_44:\n        /* \"#utility.yul\":756:785   */\n      tag_45\n        /* \"#utility.yul\":775:784   */\n      dup4\n        /* \"#utility.yul\":756:785   */\n      tag_35\n      jump\t// in\n    tag_45:\n        /* \"#utility.yul\":746:785   */\n      swap5\n        /* \"#utility.yul\":832:834   */\n      0x20\n        /* \"#utility.yul\":817:835   */\n      swap4\n      swap1\n      swap4\n      add\n        /* \"#utility.yul\":804:836   */\n      calldataload\n      swap4\n      pop\n      pop\n      pop\n        /* \"#utility.yul\":588:842   */\n      jump\t// out\n        /* \"#utility.yul\":1078:1300   */\n    tag_32:\n        /* \"#utility.yul\":1143:1152   */\n      dup1\n      dup3\n      add\n        /* \"#utility.yul\":1164:1174   */\n      dup1\n      dup3\n      gt\n        /* \"#utility.yul\":1161:1294   */\n      iszero\n      tag_48\n      jumpi\n        /* \"#utility.yul\":1216:1226   */\n      0x4e487b71\n        /* \"#utility.yul\":1211:1214   */\n      0xe0\n        /* \"#utility.yul\":1207:1227   */\n      shl\n        /* \"#utility.yul\":1204:1205   */\n      0x00\n        /* \"#utility.yul\":1197:1228   */\n      mstore\n        /* \"#utility.yul\":1251:1255   */\n      0x11\n        /* \"#utility.yul\":1248:1249   */\n      0x04\n        /* \"#utility.yul\":1241:1256   */\n      mstore\n        /* \"#utility.yul\":1279:1283   */\n      0x24\n        /* \"#utility.yul\":1276:1277   */\n      0x00\n        /* \"#utility.yul\":1269:1284   */\n      revert\n        /* \"#utility.yul\":1161:1294   */\n    tag_48:\n        /* \"#utility.yul\":1078:1300   */\n      swap3\n      swap2\n      pop\n      pop\n      jump\t// out\n\n    auxdata: 0xa2646970667358221220d7344bc6c561d4498c63509abbf496703b7c3aa0a94d81b80e810c069869940e64736f6c63430008190033\n}\n",
    "bytecode": {
      "linkReferences": {},
      "object": "6080604052348015600e575f80fd5b505f80546001600160a01b031916331790556102368061002d5f395ff3fe608060405234801561000f575f80fd5b5060043610610063575f3560e01c806385582eb41161004d57806385582eb4146100ae578063e22a8e9f146100cd578063f851a440146100e0575f80fd5b8062d8e104146100675780635ae895ff14610099575b5f80fd5b610086610075366004610193565b60026020525f908152604090205481565b6040519081526020015b60405180910390f35b6100ac6100a73660046101b3565b61010a565b005b6100866100bc366004610193565b60016020525f908152604090205481565b6100ac6100db3660046101b3565b61013a565b5f546100f2906001600160a01b031681565b6040516001600160a01b039091168152602001610090565b6001600160a01b0382165f90815260016020526040812080548392906101319084906101db565b90915550505050565b6001600160a01b0382165f90815260026020526040902054811115610174576001600160a01b0382165f9081526002602052604090208190555b5050565b80356001600160a01b038116811461018e575f80fd5b919050565b5f602082840312156101a3575f80fd5b6101ac82610178565b9392505050565b5f80604083850312156101c4575f80fd5b6101cd83610178565b946020939093013593505050565b808201808211156101fa57634e487b7160e01b5f52601160045260245ffd5b9291505056fea2646970667358221220d7344bc6c561d4498c63509abbf496703b7c3aa0a94d81b80e810c069869940e64736f6c63430008190033",
      "opcodes": "PUSH1 0x80 PUSH1 0x40 MSTORE CALLVALUE DUP1 ISZERO PUSH1 0xE JUMPI PUSH0 DUP1 REVERT JUMPDEST POP PUSH0 DUP1 SLOAD PUSH1 0x1 PUSH1 0x1 PUSH1 0xA0 SHL SUB NOT AND CALLER OR SWAP1 SSTORE PUSH2 0x236 DUP1 PUSH2 0x2D PUSH0 CODECOPY PUSH0 RETURN INVALID PUSH1 0x80 PUSH1 0x40 MSTORE CALLVALUE DUP1 ISZERO PUSH2 0xF JUMPI PUSH0 DUP1 REVERT JUMPDEST POP PUSH1 0x4 CALLDATASIZE LT PUSH2 0x63 JUMPI PUSH0 CALLDATALOAD PUSH1 0xE0 SHR DUP1 PUSH4 0x85582EB4 GT PUSH2 0x4D JUMPI DUP1 PUSH4 0x85582EB4 EQ PUSH2 0xAE JUMPI DUP1 PUSH4 0xE22A8E9F EQ PUSH2 0xCD JUMPI DUP1 PUSH4 0xF851A440 EQ PUSH2 0xE0 JUMPI PUSH0 DUP1 REVERT JUMPDEST DUP1 PUSH3 0xD8E104 EQ PUSH2 0x67 JUMPI DUP1 PUSH4 0x5AE895FF EQ PUSH2 0x99 JUMPI JUMPDEST PUSH0 DUP1 REVERT JUMPDEST PUSH2 0x86 PUSH2 0x75 CALLDATASIZE PUSH1 0x4 PUSH2 0x193 JUMP JUMPDEST PUSH1 0x2 PUSH1 0x20 MSTORE PUSH0 SWAP1 DUP2 MSTORE PUSH1 0x40 SWAP1 KECCAK256 SLOAD DUP2 JUMP JUMPDEST PUSH1 0x40 MLOAD SWAP1 DUP2 MSTORE PUSH1 0x20 ADD JUMPDEST PUSH1 0x40 MLOAD DUP1 SWAP2 SUB SWAP1 RETURN JUMPDEST PUSH2 0xAC PUSH2 0xA7 CALLDATASIZE PUSH1 0x4 PUSH2 0x1B3 JUMP JUMPDEST PUSH2 0x10A JUMP JUMPDEST STOP JUMPDEST PUSH2 0x86 PUSH2 0xBC CALLDATASIZE PUSH1 0x4 PUSH2 0x193 JUMP JUMPDEST PUSH1 0x1 PUSH1 0x20 MSTORE PUSH0 SWAP1 DUP2 MSTORE PUSH1 0x40 SWAP1 KECCAK256 SLOAD DUP2 JUMP JUMPDEST PUSH2 0xAC PUSH2 0xDB CALLDATASIZE PUSH1 0x4 PUSH2 0x1B3 JUMP JUMPDEST PUSH2 0x13A JUMP JUMPDEST PUSH0 SLOAD PUSH2 0xF2 SWAP1 PUSH1 0x1 PUSH1 0x1 PUSH1 0xA0 SHL SUB AND DUP2 JUMP JUMPDEST PUSH1 0x40 MLOAD PUSH1 0x1 PUSH1 0x1 PUSH1 0xA0 SHL SUB SWAP1 SWAP2 AND DUP2 MSTORE PUSH1 0x20 ADD PUSH2 0x90 JUMP JUMPDEST PUSH1 0x1 PUSH1 0x1 PUSH1 0xA0 SHL SUB DUP3 AND PUSH0 SWAP1 DUP2 MSTORE PUSH1 0x1 PUSH1 0x20 MSTORE PUSH1 0x40 DUP2 KECCAK256 DUP1 SLOAD DUP4 SWAP3 SWAP1 PUSH2 0x131 SWAP1 DUP5 SWAP1 PUSH2 0x1DB JUMP JUMPDEST SWAP1 SWAP2 SSTORE POP POP POP POP JUMP JUMPDEST PUSH1 0x1 PUSH1 0x1 PUSH1 0xA0 SHL SUB DUP3 AND PUSH0 SWAP1 DUP2 MSTORE PUSH1 0x2 PUSH1 0x20 MSTORE PUSH1 0x40 SWAP1 KECCAK256 SLOAD DUP2 GT ISZERO PUSH2 0x174 JUMPI PUSH1 0x1 PUSH1 0x1 PUSH1 0xA0 SHL SUB DUP3 AND PUSH0 SWAP1 DUP2 MSTORE PUSH1 0x2 PUSH1 0x20 MSTORE PUSH1 0x40 SWAP1 KECCAK256 DUP2 SWAP1 SSTORE JUMPDEST POP POP JUMP JUMPDEST DUP1 CALLDATALOAD PUSH1 0x1 PUSH1 0x1 PUSH1 0xA0 SHL SUB DUP2 AND DUP2 EQ PUSH2 0x18E JUMPI PUSH0 DUP1 REVERT JUMPDEST SWAP2 SWAP1 POP JUMP JUMPDEST PUSH0 PUSH1 0x20 DUP3 DUP5 SUB SLT ISZERO PUSH2 0x1A3 JUMPI PUSH0 DUP1 REVERT JUMPDEST PUSH2 0x1AC DUP3 PUSH2 0x178 JUMP JUMPDEST SWAP4 SWAP3 POP POP POP JUMP JUMPDEST PUSH0 DUP1 PUSH1 0x40 DUP4 DUP6 SUB SLT ISZERO PUSH2 0x1C4 JUMPI PUSH0 DUP1 REVERT JUMPDEST PUSH2 0x1CD DUP4 PUSH2 0x178 JUMP JUMPDEST SWAP5 PUSH1 0x20 SWAP4 SWAP1 SWAP4 ADD CALLDATALOAD SWAP4 POP POP POP JUMP JUMPDEST DUP1 DUP3 ADD DUP1 DUP3 GT ISZERO PUSH2 0x1FA JUMPI PUSH4 0x4E487B71 PUSH1 0xE0 SHL PUSH0 MSTORE PUSH1 0x11 PUSH1 0x4 MSTORE PUSH1 0x24 PUSH0 REVERT JUMPDEST SWAP3 SWAP2 POP POP JUMP INVALID LOG2 PUSH5 0x6970667358 0x22 SLT KECCAK256 0xD7 CALLVALUE 0x4B 0xC6 0xC5 PUSH2 0xD449 DUP13 PUSH4 0x509ABBF4 SWAP7 PUSH17 0x3B7C3AA0A94D81B80E810C069869940E64 PUSH20 0x6F6C634300081900330000000000000000000000 "
    },
    "gasEstimates": {
      "creation": {
        "codeDepositCost": "113200",
        "executionCost": "24391",
        "totalCost": "137591"
      },
      "external": {
        "addToScore(address,uint256)": "24737",
        "admin()": "2379",
        "highScores(address)": "2506",
        "totalScores(address)": "2505",
        "updateHighScore(address,uint256)": "24754"
      }
    },
    "methodIdentifiers": {
      "addToScore(address,uint256)": "5ae895ff",
      "admin()": "f851a440",
      "highScores(address)": "00d8e104",
      "totalScores(address)": "85582eb4",
      "updateHighScore(address,uint256)": "e22a8e9f"
    }
  },
  "storageLayout": {
    "storage": [
      {
        "astId": 3,
        "contract": "BrickGame.sol:GameScores",
        "label": "admin",
        "offset": 0,
        "slot": "0",
        "type": "t_address"
      },
      {
        "astId": 7,
        "contract": "BrickGame.sol:GameScores",
        "label": "totalScores",
        "offset": 0,
        "slot": "1",
        "type": "t_mapping(t_address,t_uint256)"
      },
      {
        "astId": 11,
        "contract": "BrickGame.sol:GameScores",
        "label": "highScores",
        "offset": 0,
        "slot": "2",
        "type": "t_mapping(t_address,t_uint256)"
      }
    ],
    "types": {
      "t_address": {
        "encoding": "inplace",
        "label": "address",
        "numberOfBytes": "20"
      },
      "t_mapping(t_address,t_uint256)": {
        "encoding": "mapping",
        "key": "t_address",
        "label": "mapping(address => uint256)",
        "numberOfBytes": "32",
        "value": "t_uint256"
      },
      "t_uint256": {
        "encoding": "inplace",
        "label": "uint256",
        "numberOfBytes": "32"
      }
    }
  },
  "userdoc": {
    "kind": "user",
    "methods": {},
    "version": 1
  }
}